:020000040800F2
:10000000400F00200D020008F10800087B080008DE
:10001000ED080008950600081B100008000000000D
:10002000000000000000000000000000E90B0008D4
:1000300025070008000000008D0B0008290D0008AE
:1000400027020008270200082702000827020008EC
:1000500027020008270200082702000827020008DC
:1000600027020008270200082702000827020008CC
:1000700027020008270200082702000827020008BC
:1000800027020008270200082702000827020008AC
:10009000270200082702000827020008270200089C
:1000A000270200082702000827020008270200088C
:1000B000270200082702000827020008270200087C
:1000C000270200082702000827020008270200086C
:1000D00027020008350F0008270200082702000841
:1000E000270200082702000827020008270200084C
:1000F000270200082702000827020008270200083C
:10010000270200082702000827020008270200082B
:10011000270200082702000827020008270200081B
:10012000270200082702000827020008270200080B
:1001300000F002F800F05AF80AA090E8000C82449F
:100140008344AAF10107DA4501D100F04FF8AFF27C
:10015000090EBAE80F0013F0010F18BFFB1A43F0A5
:100160000103184728130000481300000A444FF009
:10017000000C10F8013B13F0070408BF10F8014B06
:100180001D1108BF10F8015B641E05D010F8016B4B
:10019000641E01F8016BF9D113F0080F1EBF10F8AF
:1001A000014BAD1C0C1B09D16D1E58BF01F801CBD2
:1001B000FAD505E014F8016B01F8016B6D1EF9D555
:1001C0009142D6D37047000000230024002500266A
:1001D000103A28BF78C1FBD8520728BF30C148BFAA
:1001E0000B6070471FB51FBD10B510BD00F033F890
:1001F0001146FFF7F7FF00F0C9FF00F051F803B414
:10020000FFF7F2FF03BC00F033FF0000094880470E
:1002100009480047FEE7FEE7FEE7FEE7FEE7FEE7E8
:10022000FEE7FEE7FEE7FEE704480549054A064B00
:10023000704700002D0D0008310100084009002022
:10024000400F0020400B0020400B002070477047FB
:10025000704770477047754600F02CF8AE460500B1
:100260006946534620F00700854618B020B5FFF7D1
:10027000DBFFBDE820404FF000064FF000074FF0D5
:1002800000084FF0000B21F00701AC46ACE8C009B4
:10029000ACE8C009ACE8C009ACE8C0098D467047BD
:1002A00010B50446AFF300802046BDE81040FFF7CC
:1002B000A6BF000000487047DC08002021B182681A
:1002C00042F00102826003E0826822F00102826053
:1002D000704721B1826842F48072826003E08268D4
:1002E00022F4807282607047014600208A6802F022
:1002F00004020AB1012000E00020704730B5024638
:100300000020002350680F4C20400D790C6844EA0F
:1003100005242043506090680B4C2040D1E90254E2
:100320002C434D7944EA450420439060D06A20F480
:1003300070000C7C641EE4B2234340EA0350D06298
:1003400030BD0000FFFEF0FFFDF7F1FFF0B5044601
:100350000D4600200021092D11DDE068A5F10A06F7
:1003600006EB4607072606FA07F18843A5F10A06B9
:1003700006EB460603FA06F10843E0600CE020694C
:1003800005EB4507072606FA07F1884305EB450606
:1003900003FA06F108432061072A0FDA606B561E44
:1003A00006EB86071F2606FA07F18843561E06EB62
:1003B000860605FA06F10843606322E00D2A0FDA8B
:1003C000206BD61F06EB86071F2606FA07F1884327
:1003D000D61F06EB860605FA06F10843206310E0F7
:1003E000E06AA2F10D0606EB86071F2606FA07F162
:1003F0008843A2F10D0606EB860605FA06F10843CE
:10040000E062F0BD21B1826842F4A002826003E0A4
:10041000826822F4A00282607047816841F0040182
:100420008160704700B585B00121480200F0CCFB27
:100430000020009001208DF80500002003904FF46B
:100440006020029007208DF8100000208DF8040035
:1004500069461248FFF752FF4FF4004000F098FB46
:100460000023012207210D48FFF770FF01210B48EF
:10047000FFF724FF0948FFF7D0FF00BF0748FFF749
:1004800033FF0028FAD001210448FFF722FF0121A1
:100490000248FFF7B7FF05B000BD0000002401408F
:1004A00000B58BB00121084600F07EFB0F4800909C
:1004B0000F4801900020029001200390002004903A
:1004C00005904FF4807006908000079020200890DF
:1004D0000002099000200A906946064800F004F9DD
:1004E0000121044800F0F4F80BB000BD4C24014099
:1004F000000000200800024008B50121042000F09F
:1005000063FB8020ADF8000000208DF803006946F1
:10051000014800F027F908BD0008014010B5FFF7B9
:10052000EBFFFFF7BDFFFFF77DFF10BD00B58BB000
:100530000121C80200F048FB2320ADF82000002074
:10054000ADF822004FF6FF70ADF824000020ADF8A2
:1005500026008DF8280008A9224800F099FC6020A8
:10056000ADF810000120ADF812000420ADF8140021
:1005700042F6E060ADF816000020ADF81800ADF8C6
:100580001A00ADF81C00ADF81E0004A9154800F0D3
:1005900029FC0821134800F071FC4FF40060ADF80D
:1005A00000004010ADF802000020ADF80400072064
:1005B000ADF806004FF48050ADF808004000ADF8EB
:1005C0000A004000ADF80C006946064800F0DEFB6A
:1005D0000121044800F0EAFB0121024800F0F2FB8F
:1005E0000BB000BD002C014008B50121042000F033
:1005F000EBFA0121082000F0E7FA0121082000F0C1
:10060000E3FA18208DF803004FF48070ADF8000075
:1006100003208DF8020069460B4800F0A3F84FF460
:100620000050ADF800006946084800F09BF818201B
:100630008DF803004FF48050ADF800006946034880
:1006400000F090F808BD000000080140000C0140D7
:1006500010B5FFF7C9FFFFF769FF10BD0146C217CC
:1006600000EB5272D210C2F10702094B1A70C21786
:1006700000EB5272D210A0EBC202C2F107025A7014
:1006800019464A78012191401A469170704700003E
:100690000304002000BFFEE70146C21700EB5272C0
:1006A000D210C2F10702094B1A70C21700EB527246
:1006B000D210A0EBC202C2F107025A7019464A7862
:1006C000012191401A4691707047000006040020F5
:1006D00021B1026842F00102026004E002684FF6B4
:1006E000FE731A400260704710B50022026847F698
:1006F000F0739A430C6A8B6823430C6923434C695B
:1007000023438C692343CC6923434C6A23438C6A7B
:1007100023431A430260CB6843600B6883604B68D5
:10072000C36010BD7047000070B504460C4800F06F
:10073000D1FA002508E000BF4FF0E020006900F486
:1007400080300028F8D06D1CA542F4D34FF0E02093
:10075000006920F001004FF0E021086170BD000049
:10076000401901002DE9F041024600250026002035
:1007700000230024002791F803C00CF00F0591F826
:1007800003C00CF0100CBCF1000F03D091F802C0B4
:100790004CEA050591F800C0BCF1000F31D0146897
:1007A00000202BE04FF0010C0CFA00F3B1F800C070
:1007B0000CEA03069E4220D183004FF00F0C0CFA86
:1007C00003F7BC4305FA03FC4CEA040491F803C0A8
:1007D000BCF1280F06D14FF0010C0CFA00FCC2F856
:1007E00014C00AE091F803C0BCF1480F05D14FF0E6
:1007F000010C0CFA00FCC2F810C0401C0828D1D330
:100800001460B1F800C0BCF1FF0F34DD5468002063
:100810002EE000F1080C4FF0010808FA0CF3B1F8D3
:1008200000C00CEA03069E4221D183004FF00F0C5A
:100830000CFA03F7BC4305FA03FC4CEA040491F8F4
:1008400003C0BCF1280F05D100F1080C08FA0CF820
:10085000C2F8148091F803C0BCF1480F07D100F131
:10086000080C4FF0010808FA0CF8C2F81080401C80
:100870000828CED35460BDE8F08100BFFEE770B514
:1008800005460C4600F03CFC782000F00FFC00F020
:100890005FFC00B110E0284600F008FC00F058FCB6
:1008A00000B109E0204600F001FC00F051FC00B16D
:1008B00002E000F03DFC00BF00F03AFC70BD00001B
:1008C00008B50121082000F07FF94FF48050ADF801
:1008D000000010208DF8030003208DF80200694607
:1008E0000148FFF73FFF08BD000C014000BFFEE7D5
:1008F0007047000070B500240CE0002506E00020E1
:10090000074901EBC4114855681CC5B2802DF6DBC0
:10091000601CC4B2082CF0DB00F090FB70BD00003E
:10092000140400202DE9F047074688464046FFF7AB
:10093000B3FE5D4800785D490978401A45B2002D44
:1009400029DD594806783946304600F00DF95649F8
:100950008978491EC8B200F069FB701EC6B2002437
:100960000AE03946304600F0FFF8FF2000F05EFB59
:10097000701EC6B2601CC4B2681EA042F1DC3946CB
:10098000304600F0F1F849494A78FF219140C8B259
:1009900000F04CFB6BE0002D3AD1444840784249CE
:1009A0004978884209D141490878394600F0DCF895
:1009B0003E49887800F03AFB59E03C4840783A4993
:1009C0004978884210DD39490878394600F0CCF87A
:1009D00036498978344A9278891A344A9278114390
:1009E000C8B200F023FB42E0304840782E494978F5
:1009F00088423CDA2D490878394600F0B5F82A4992
:100A000089782A4A9278891AC8B200F00FFB2EE042
:100A1000002D2CDA254806783946304600F0A4F837
:100A2000224989780122C2EB4101C8B200F0FEFAE6
:100A3000701EC6B200240AE03946304600F094F831
:100A4000FF2000F0F3FA701EC6B2601CC4B2C5F1FC
:100A5000FF30A042F0DC3946304600F085F81249FC
:100A60004978491CFF228A40D0B200F0DFFA4046A4
:100A7000FFF7F4FD002413E0781CC1B2204600F01B
:100A800073F84FF0000906E0002000F0CFFA09F1FA
:100A9000010000F0FF09B9F1010FF5DB601CC4B2E1
:100AA000082CE9DBBDE8F0870304002006040020E1
:100AB00010B500F0E1FA4FF47A70FFF735FEAE2082
:100AC00000F0ADFA202000F0AAFA102000F0A7FAFA
:100AD000B02000F0A4FAC82000F0A1FA002000F035
:100AE0009EFA102000F09BFA402000F098FA812036
:100AF00000F095FAFF2000F092FAA12000F08FFAA2
:100B0000A62000F08CFAA82000F089FA3F2000F01F
:100B100086FAA42000F083FAD32000F080FA0020A7
:100B200000F07DFAD52000F07AFAF02000F077FA94
:100B3000D92000F074FA222000F071FADA2000F0D7
:100B40006EFA122000F06BFADB2000F068FA202029
:100B500000F065FA8D2000F062FA142000F05FFAD0
:100B6000AF2000F05CFA10BD70B505460C4605F1EB
:100B7000B001C8B200F053FA04F00F0000F04FFAD1
:100B8000102141EA141000F04AFA70BD70470000CD
:100B900001460020034A506820F44040084350605A
:100BA000704700000010024029B1064A5269024312
:100BB000044B5A6104E0034A52698243014B5A6173
:100BC000704700000010024029B1064A92690243B2
:100BD000044B9A6104E0034A92698243014B9A6193
:100BE0007047000000100240704710B500F002F896
:100BF00010BD00000CB50020019000903348006843
:100C000040F480303149086000BF3048006800F48B
:100C1000003000900198401C0190009818B901988C
:100C2000B0F5A06FF1D12948006800F4003010B190
:100C30000120009001E0002000900098012843D19D
:100C40002348006840F01000214908600846006809
:100C500020F0030008600846006840F002000860C9
:100C60001A48406819494860084640684860084684
:100C7000406840F4806048600846406820F47C107A
:100C800048600846406840F4E8104860084600683C
:100C900040F08070086000BF0C48006800F00070F1
:100CA0000028F9D00948406820F00300074948604F
:100CB0000846406840F00200486000BF03484068B2
:100CC00000F00C000828F9D10CBD00000010024013
:100CD0000020024030B50146B1F1807F01D30120F0
:100CE00030BD21F07F40401E4FF0E0225061501790
:100CF0000F22002807DA13071D0E094B00F00F041E
:100D0000241F1D5503E013071C0E064B1C5400BF87
:100D100000204FF0E0229061072010610020DFE703
:100D200018ED00E000E400E07047000010B5134843
:100D3000006840F001001149086008464068104909
:100D400008400E494860084600680E4908400B49B3
:100D500008600846006820F4802008600846406863
:100D600020F4FE0048604FF41F008860FFF73DFF4D
:100D70004FF000600449086010BD00000010024000
:100D80000000FFF8FFFFF6FE08ED00E00A884B8840
:100D90001A438B881A43CB881A430B891A434B8911
:100DA0001A438B891A43A0F84420704721B1028866
:100DB00042F00102028004E002884FF6FE731A40FE
:100DC0000280704731B1B0F8442042F40042A0F8EC
:100DD000442005E0B0F84420C2F30E02A0F84420FD
:100DE0007047000070B5002400220023058C4FF6E8
:100DF000FE7635400584028C8388048B4FF68F7510
:100E00002C40B51E2C400D882C43751E2A400D89A0
:100E10002A434D882A43144DA8420BD0134DA842B3
:100E200008D0134DA84205D0124DA84202D0124D51
:100E3000A84213D14FF6F7752A404D892A434FF641
:100E4000FB752A408D882A434FF6FF652B404FF6ED
:100E5000FF552B408D892B43CD892B438380048301
:100E6000CD888586028470BD002C0140003401408D
:100E70000040014000440140004801400A46002172
:100E8000018B4FF6F773194011430183704700003F
:100E9000002202881D4B98420ED01D4B98420BD069
:100EA000B0F1804F08D01B4B984205D01A4B9842A6
:100EB00002D01A4B984204D14FF68F731A404B88D8
:100EC0001A43174B984207D0164B984204D04FF65E
:100ED000FF431A40CB881A4302808B8883850B8896
:100EE00003850A4B98420BD0094B984208D00E4B11
:100EF000984205D00D4B984202D00D4B984201D13B
:100F00000B7A03860123838270470000002C014086
:100F1000003401400004004000080040000C004084
:100F20000010004000140040004001400044014017
:100F30000048014010B540F225511D4800F03EF830
:100F400010B31B4800F064F8C4B21A48008800F4DB
:100F50000040C8B91748008800F4804060B10A2CEE
:100F600003D000201349088020E01248008840F494
:100F700000401049088019E00D2C06D10D4800886A
:100F800040F480400B49088010E00A480088C0F314
:100F90000D0009490C5407480088401C0549088089
:100FA00008460088C72801DD0020088010BD000029
:100FB00000380140100400201408002070B50246DB
:100FC000002400230025002040F66A16B14200D11B
:100FD00000BFC1F3421501F01F03012606FA03F317
:100FE000012D02D19689334006E0022D02D1168AE6
:100FF000334001E0968A33400C12012606FA04F4CD
:101000001688344013B10CB1012000E0002070BDFF
:1010100001468888C0F30800704700BFFEE710B59E
:10102000044621460020FFF72AFC10BD10B50446F7
:1010300021464020FFF723FC10BD000070B50024BE
:1010400011E000212046FFF78FFD002507E007494A
:1010500001EBC411485DFFF7E9FF681CC5B2802DA4
:10106000F5DB601CC4B2082CEBDB70BD140400205F
:10107000014600BF7047000008B501210820FFF7B6
:10108000A3FDC020ADF8000003208DF8020014205D
:101090008DF8030069460348FFF764FB00F048F849
:1010A00008BD0000000C01407047000070B5044608
:1010B000002520E004F0800018B180200F4908606E
:1010C00003E080200D49091D0860FFF7EDFF402077
:1010D0000A490860FFF7E8FF40200849091D086039
:1010E000072D02D18020091F08606006040EFFF75B
:1010F000DBFF681CC5B2082DDCDB70BD100C0140A5
:1011000010B580200949086040200860FFF7CCFF37
:1011100080200649091D0860FFF7C6FF40200349EB
:10112000091D0860FFF7C0FF10BD0000100C014052
:1011300010B58020054908604020091F0860FFF7AE
:10114000B3FF80200149091F086010BD140C014045
:1011500010B580200C490860FFF7A6FF40200A491F
:101160000860FFF7A1FF08480838006800F0800019
:1011700008B1012400E0002440200349091D086053
:10118000FFF792FF204610BD100C0140FFF798FBBF
:10119000FFF78EFCFFF7C2F9FFF75AFA19480088EB
:1011A00000F063F80746184A184B00F071F805463E
:1011B00000F02EF800F0FF094846FFF74FFAFFF75E
:1011C00099FB1DE0002419E00E48008800F04DF85E
:1011D00007460D4A0D4B00F05BF8054600F018F885
:1011E00000F0FF0949462046FFF79CFB601CC11731
:1011F00000EB5161C911A0EBC111CCB2802CE3DB33
:10120000E0E7000000000020DEAB5626FC528F3FD6
:101210004FEA1153A3F58063D3F11E03A8BFD3F1A6
:10122000200C08DB4FF0004242EAC12252EA505241
:1012300032FA03F0704709420BD4102BC4BF0020D0
:10124000704703F5787CBCF1FF3F05D04FF0FF30CD
:1012500070474FF00000704770B500F0C3F800BF52
:101260004992248000207047F0E7B0FA80F310FA2A
:1012700003F10AD0C3F11D0303F580634FEA415027
:101280004FEA035202EBD12170474FF00000704744
:10129000DFF848C170B51CEA111E1EBF1CEA131509
:1012A0009EEA0C0F95EA0C0F00F06F8081EA0304B0
:1012B00023EA4C134EEAD47E21EA4C1141F480110A
:1012C00043F48013AE44A1FB024CA0FB0365AEF1D6
:1012D0007F7E361955EB0C05A1FB034C4CF1000346
:1012E000A0FB021C16EB0C06654153F100030942FA
:1012F00018BF46F0010613F4007F0BD14FEA03310B
:101300004FEA0530340341EA155140EA16506FF0B8
:1013100003020AE04FEAC3214FEAC520F40241EA82
:10132000555140EA56506FF0020202EB2E4201EB9B
:10133000025585EACE710AD05FEA440C18BF24F04A
:10134000004450F1000041F1000120EAD47040F265
:10135000FE7C624500D270BDA84214BF4FF08044AD
:101360004FF04044002E08BF0024BEF1806FA8BF9C
:10137000A1F1C041BDE8704080F282804FF00000D2
:1013800001F1C04101F0004170479EEA0C0F0CEAE8
:10139000131518BF95EA0C0F06D04FF0000081EA34
:1013A000030E0EF0004170BD00F01CF88900013EF4
:1013B00000F007B800F009B84FEA430C5FEA5C5C44
:1013C00008D081EA030100F05BB84FEA410C5FEA04
:1013D0005C5CF6D14FF00000014970470000FF0748
:1013E0000000F87F0EF1020E2EF0030E5EF8046B83
:1013F000364205D4012A43EB030515F5001F12D828
:10140000012841EB010C1CF5001F0CD80ED14FEA4E
:10141000D17C15F5001F0CEB4C0C0CF1020C08BF35
:101420004CEBD37C04E04FF0080C01E04FEAD37C96
:101430000CEB4C0526FA05F606F00706B6F1040C8F
:1014400006D20EEB860CBDE870404CF0010C6047F4
:10145000DFE80CF0090B02024FF000414FF00000F2
:10146000A1F5002170BD19461046012851EB010479
:1014700018BFD4F5001484BF002001F0004170BDF6
:101480000808A0F500114FEA31017047AC140008BC
:1014900000000020140400006C010008C4150008BE
:1014A000140400202C0B0000C801000841100A039E
:1014B000050911FF118905C312E012F072F8073D0A
:1014C0004428FF11AA44700B83013844829292741D
:1014D00001831E7C44C7017D01990562FF9A0102C8
:1014E000818A010B013669419949FA0101A12A401B
:1014F00001212A6D01212A6001791501642ADB018D
:101500000915072ADA01212AD801212AC001091563
:10151000072A800101352A06010918071CE6662002
:10152000076A86157A861C2A8601180A80808686B4
:10153000068686C0C00C0E1C0606D030764D2907E4
:10154000013113601C12FE1301021009C41820029D
:101550009E63B20E1DFF8181FFF24440300F12FFE7
:10156000180923EAAABFAAEA033F0B012DBC808019
:1015700080080115240E0C082A01013149041D813F
:10158000808081021901B91706110101090C0E0AA8
:1015900014C0012178081E21404050215E08012A14
:1015A0004DFFFFC1C10409232D08151180FCF3EF85
:1015B000F3FC80FF80EEEEEEF5FBFF9CBEB6B68836
:0415C0003A000000ED
:040000050800020DE0
:00000001FF
